:100000000C94A4010C94C1010C94C1010C94EB0854
:100010000C94C1010C94C1010C94C1010C94C10158
:100020000C94C1010C94C1010C94C1010C94C10148
:100030000C94C1010C94C1010C94C1010C94C10138
:100040000C94C1010C94C101000306050C0F0A09B0
:10005000181B1E1D14171211303336353C3F3A3928
:10006000282B2E2D24272221606366656C6F6A6918
:10007000787B7E7D74777271505356555C5F5A5908
:10008000484B4E4D44474241C0C3C6C5CCCFCAC9F8
:10009000D8DBDEDDD4D7D2D1F0F3F6F5FCFFFAF9E8
:1000A000E8EBEEEDE4E7E2E1A0A3A6A5ACAFAAA9D8
:1000B000B8BBBEBDB4B7B2B1909396959C9F9A99C8
:1000C000888B8E8D848782819B989D9E9794919238
:1000D000838085868F8C898AABA8ADAEA7A4A1A2A8
:1000E000B3B0B5B6BFBCB9BAFBF8FDFEF7F4F1F298
:1000F000E3E0E5E6EFECE9EACBC8CDCEC7C4C1C288
:10010000D3D0D5D6DFDCD9DA5B585D5E5754515277
:10011000434045464F4C494A6B686D6E6764616267
:10012000737075767F7C797A3B383D3E3734313257
:10013000232025262F2C292A0B080D0E0704010247
:10014000131015161F1C191A637C777BF26B6FC591
:100150003001672BFED7AB76CA82C97DFA5947F0CA
:10016000ADD4A2AF9CA472C0B7FD9326363FF7CCA6
:1001700034A5E5F171D8311504C723C31896059A43
:10018000071280E2EB27B27509832C1A1B6E5AA066
:10019000523BD6B329E32F8453D100ED20FCB15B51
:1001A0006ACBBE394A4C58CFD0EFAAFB434D3385BA
:1001B00045F9027F503C9FA851A3408F929D38F58E
:1001C000BCB6DA2110FFF3D2CD0C13EC5F974417C5
:1001D000C4A77E3D645D197360814FDC222A90883C
:1001E00046EEB814DE5E0BDBE0323A0A4906245CC8
:1001F000C2D3AC629195E479E7C8376D8DD54EA92D
:100200006C56F4EA657AAE08BA78252E1CA6B4C6F8
:10021000E8DD741F4BBD8B8A703EB5664803F60E51
:10022000613557B986C11D9EE1F8981169D98E9440
:100230009B1E87E9CE5528DF8CA1890DBFE6426859
:1002400041992D0FB054BB1600020406080A0C0E8B
:1002500010121416181A1C1E20222426282A2C2EAE
:1002600030323436383A3C3E40424446484A4C4E9E
:1002700050525456585A5C5E60626466686A6C6E8E
:1002800070727476787A7C7E80828486888A8C8E7E
:1002900090929496989A9C9EA0A2A4A6A8AAACAE6E
:1002A000B0B2B4B6B8BABCBEC0C2C4C6C8CACCCE5E
:1002B000D0D2D4D6D8DADCDEE0E2E4E6E8EAECEE4E
:1002C000F0F2F4F6F8FAFCFE1B191F1D13111715B6
:1002D0000B090F0D030107053B393F3D333137351E
:1002E0002B292F2D232127255B595F5D535157550E
:1002F0004B494F4D434147457B797F7D73717775FE
:100300006B696F6D636167659B999F9D93919795ED
:100310008B898F8D83818785BBB9BFBDB3B1B7B5DD
:10032000ABA9AFADA3A1A7A5DBD9DFDDD3D1D7D5CD
:10033000CBC9CFCDC3C1C7C5FBF9FFFDF3F1F7F5BD
:10034000EBE9EFEDE3E1E7E511241FBECFE5D4E0F3
:10035000DEBFCDBF10E0A0E6B0E0EAEDF2E102C002
:1003600005900D92AE3CB107D9F711E0AEECB0E0CC
:1003700001C01D92A73BB107E1F70E94C3010C9495
:100380006B090C940000BF92CF92DF92EF92FF9224
:100390000F931F9389E691E0909366018093650126
:1003A0002FE331E030936801209367010E946A03D4
:1003B00080916701909168010E9473030E942A0452
:1003C00042E0B42E16E630E1C32E20E2D22E92E4B3
:1003D000E92E8AE6F82E07E8809165019091660182
:1003E0000E945704982FE0916701F09168018823DB
:1003F000D9F080916901808380916A018183B28202
:100400001582923029F0933031F0913051F406C0CA
:100410001383C48210C01383D4820DC0F38204837B
:100420000AC0E382148207C0809165019091660141
:10043000BF010E944C0280916701909168010E9467
:100440009F0380916501909166010E946A038091EB
:100450006701909168010E947303BECFFC01858102
:10046000861711F021E007C020E08681841709F487
:1004700021E081E02827822F0895FC0187818617DB
:1004800011F021E007C020E08085841709F421E005
:1004900081E02827822F0895FC01DB0180818C9365
:1004A000818111968C9311978181813C71F48081B7
:1004B0008C9381EE11968C93119781E012968C9318
:1004C0001297838116968C9308958381803809F062
:1004D0006DC084818035B1F1813530F4803451F0C4
:1004E000823409F05FC01AC08235E1F1803609F02C
:1004F00059C048C08581882309F05CC08681882363
:1005000009F058C08781803109F058C0808580315A
:1005100009F054C0CF010E94E50508958581882324
:1005200009F048C08681882309F044C08781803162
:1005300009F044C08085803109F040C0CF010E949D
:10054000BE05089585818823A9F58681882391F5C4
:100550008781803199F58085803181F5CF010E94B6
:10056000970508958581882329F58681882311F5CB
:100570008781803119F58085803101F5CF010E9496
:100580007005089585818823A9F48681882391F4D4
:100590008781803199F48085803181F4CF010E9478
:1005A00049050895CD010E9486030895CB010E945C
:1005B0007E030895CD010E9496030895CD010E9407
:1005C0008E03089565E16A95F1F7089569E7FBCF19
:1005D0007F936F935F934F9361E06093B201BE98F6
:1005E000C698B699FECFB699FCCF882799276FE1B8
:1005F000EADF22D0000059E0442762E40000000056
:10060000E2DF1AD0470F889470FD0894879561E463
:100610005A95B1F7881F40FD08C06CE4D4DF9927D4
:100620004F915F916F917F9108956CE4CCDFBE9AFA
:10063000C69866EBC8DFD3CF77278894B69908941D
:10064000791FC0DF8894B6990894791FBBDF88941E
:10065000B6990894791F769508956F937F9360916A
:10066000B201662329F0B2DFB1DF60E06093B2012E
:10067000C69ABE9AC69867E7A6DF98E0772787955F
:1006800010F0C69802C0C69A739566E79CDF00001A
:100690009A95A9F770FD04C000000000C69804C038
:1006A0000000C69A0000000060E78DDFC69A67E789
:1006B0008ADFBE98C6988894B699089430F08795DA
:1006C000B699FECF6AE37FDFD3CF64E77CDF7F910B
:1006D0006F910895FC011082118212821086178298
:1006E000138214820895FC011082118282E08283B9
:1006F000158282E6838386E884830895FC0182E084
:10070000828315828EE6838314820895FC0182E041
:10071000828315828DE6838314820895FC0182E032
:100720008283158287E6838314820895FC0182E028
:10073000828315828AE6838380E884830895CF923A
:10074000DF92FF920F931F93DF93CF93CDB7DEB766
:10075000C954D0400FB6F894DEBF0FBECDBF8C0198
:10076000DC0111962C9111973C9112964C911297A5
:1007700027FF1BC039832A834B8316968C918C8369
:10078000132F1227142718271D83832F0E942D0350
:100790008A810E942D038B810E942D038C810E94EF
:1007A0002D03812F0E942D0346C039832A834B835A
:1007B000632F62276427FC018581A80194E0C92E7C
:1007C000D12CCC0EDD1EA82FB0E09E012A0F3B1FBE
:1007D0002C5F3F4F06C0FA018581F60181936F01BE
:1007E00068274F5F5F4FC216D306A9F7F8019381C0
:1007F000FE01EA0FFB1F9483F8018481FE01EA0FDA
:10080000FB1F8583892786278683FF246E01089432
:10081000C11CD11C06C0EC0DFD1D80810E942D0362
:10082000F394EF2DF0E0D80112968C9190E00396AE
:100830008E179F0784F7C75BDF4F0FB6F894DEBFB4
:100840000FBECDBFCF91DF911F910F91FF90DF9031
:10085000CF9008951F93CF93DF931BE3C6E6D0E0BC
:10086000FE018191182780E0E037F807D1F78BE38C
:100870000E942D038AEB0E942D0381E10E942D032B
:1008800080E00E942D0381E10E942D0381E80E94F7
:100890002D0389910E942D0380E0C037D807C9F746
:1008A000812F0E942D03DF91CF911F9108957F9298
:1008B0008F929F92AF92BF92CF92DF92EF92FF9270
:1008C0000F931F93DF93CF93CDB7DEB7C954D040BA
:1008D0000FB6F894DEBF0FBECDBF7C010E94E802C8
:1008E000782E0E94E802882E0E94E802982E89E461
:1008F000891528F400E010E0C92CDD240CC08E011D
:100900000F5F1F4F68015801A90CB11C17C00E944E
:10091000E8020F5F1F4F0C151D05CCF30E94E80283
:10092000D7017C9211968C92119712969C9282E03C
:1009300068C00E94E802F60181936F01CA14DB04CB
:10094000C1F70E94E802682FD7017C9211968C9221
:10095000119712969C92982D9725992504C0F8011D
:1009600081918F0198270C151D05C9F78981D70141
:1009700013968C9313978A8114968C9314978B817A
:1009800015968C9315978C8116968C9316971296C4
:100990008C911297853011F48D8128C0863040F1FA
:1009A0008D81F70187838E010A5F1F4F40E050E081
:1009B00006C0D8018D918D0180874F5F5F4FD701B1
:1009C00017968C911797282F30E0319642175307CE
:1009D00084F312968C911297E82FF0E02B5F3F4F33
:1009E0002E173F072CF4EC0FFD1F808118968C9377
:1009F000F7018085813210F083E003C080E0961318
:100A000081E0C75BDF4F0FB6F894DEBF0FBECDBFEE
:100A1000CF91DF911F910F91FF90EF90DF90CF90DA
:100A2000BF90AF909F908F907F900895CF93DF936A
:100A3000EC0190E00BC0E92FF0E0DE01AE0FBF1F2C
:100A400019968C91E253FF4F80839F5F8F81981797
:100A500090F3DF91CF910895CF93DF93EC016E5F18
:100A60006A8362506D8380E98B831C8290E00BC0A7
:100A7000E92FF0E0DE01AE0FBF1FE25FFE4F808185
:100A800016968C939F5F8D81981790F3DF91CF918D
:100A900008950F931F93CF93DF93EC018B0190E0A8
:100AA0000BC0E92FF0E0DE01AE0FBF1F19968C914D
:100AB000E253FF4F80839F5F8F81981790F38EECF6
:100AC00090E06EE071E040E750E00E945008C801FD
:100AD00060E10E942C05DF91CF911F910F91089545
:100AE0000F931F93CF93DF93EC018B0190E00BC02A
:100AF000E92FF0E0DE01AE0FBF1F19968C91E25393
:100B0000FF4F80839F5F8F81981790F38EEC90E06A
:100B10006EE071E040E750E00E948906C80160E1A4
:100B20000E942C05DF91CF911F910F9108950F9393
:100B30001F93CF93DF93EC018B0190E00BC0E92F63
:100B4000F0E0DE01AE0FBF1F19968C91E253FF4F0C
:100B500080839F5F8F81981790F38EEC90E06EE01A
:100B600071E040E750E00E944806C80160E10E9441
:100B70002C05DF91CF911F910F9108950F931F9333
:100B8000CF93DF93EC018B0190E00BC0E92FF0E0F5
:100B9000DE01AE0FBF1F19968C91E253FF4F808389
:100BA0009F5F8F81981790F38EEC90E06EE071E07C
:100BB00040E750E00E942706C80160E10E942C0532
:100BC000DF91CF911F910F9108950F931F93CF93B2
:100BD000DF93EC018B0190E00BC0E92FF0E0DE0128
:100BE000AE0FBF1F19968C91E253FF4F80839F5F1A
:100BF0008F81981790F38EEC90E06EE071E040E703
:100C000050E00E940C06C80160E10E942C05DF91B3
:100C1000CF911F910F910895FB0187B3806A87BB25
:100C200088B3806A88BB80E7808385E6818384E718
:100C3000828381E6838381E5848385E015828F5FEB
:100C400031968031D9F788B38F7588BB0895CF93DB
:100C5000DF9327B3206A27BB28B3206A28BBEC01A7
:100C600020E030E0DB01A20FB31FFA01E20FF31F17
:100C700080819F8589278C932F5F3F4F219720315B
:100C8000310581F788B38F7588BBDF91CF910895C7
:100C90002F923F924F925F926F927F928F929F928C
:100CA000AF92BF92CF92DF92EF92FF920F931F937A
:100CB000CF93DF93EF93FF93B92FA82FD72FC62F92
:100CC000F52FE42FBD9ABF9AC59AC79A00E1112764
:100CD000C00FD11F20E10D91119101270A932A9590
:100CE000D1F7C598C798FF91EF91DF91CF911F91F0
:100CF0000F91FF90EF90DF90CF90BF90AF909F90BB
:100D00008F907F906F905F904F903F902F90112425
:100D100008952F923F924F925F926F927F928F929F
:100D20009F92AF92BF92CF92DF92EF92FF920F937A
:100D30001F93CF93DF93EF93FF93A82FB92FC62F65
:100D4000D72FE42FF52FBD9ABF9AC59AC79A00E115
:100D50001127A00FB11F20E10E91119101270993D6
:100D60002A95D1F7C598C798FF91EF91DF91CF9160
:100D70001F910F91FF90EF90DF90CF90BF90AF90B9
:100D80009F908F907F906F905F904F903F902F90AB
:100D90001124089570E0FB01EE0FFF1FE057FF4F95
:100DA000482F50E020813181F9014E9F90014F9FE3
:100DB000300D5E9F300D1124232F3327A901469F4C
:100DC0009001479F300D569F300D1124821B0895CE
:100DD000FC019181858181838185858385858187DA
:100DE0009587928182858283928796818685868384
:100DF0009687938187858383838587878781838788
:100E0000978308959F92AF92BF92CF92DF92EF9215
:100E1000FF920F931F93CF93DF93EC01EE24FF24F7
:100E20003881032F10E0F801E85BFD4FA490498161
:100E3000642F70E0CB01885B9F4FFC01B4902A8146
:100E40009B81685B7D4FFB01C490A22FB0E0BD0188
:100E5000685B7F4FFB01D490A85BBD4FFD01949070
:100E6000692F70E0DB01A85BBF4FFD01B491085B07
:100E70001F4FF801A491685B7D4FFB015491892FAE
:100E800082278A258B25888393279C259D259983F6
:100E9000342739253B273A8324272A2725272B83E4
:100EA00084E090E0E80EF91E249690E1E916F10442
:100EB00009F0B6CFDF91CF911F910F91FF90EF9086
:100EC000DF90CF90BF90AF909F9008950F931F93A6
:100ED0008C010E94E806C8010E9402071F910F9131
:100EE0000895AC011092B4011092B30120E030E0FB
:100EF000F901E25DFE4FDA01A20FB31F8C918083EE
:100F00002F5F3F4F2031310599F70895E0913B0164
:100F1000F0E0E85BFE4FE4912091B3013091B40121
:100F2000D901AE54BF4F8C9190912E0189278E2705
:100F300080932E012F5F3F4F3093B4012093B30174
:100F4000E0913C01F0E0E85BFE4FE49180912F01DD
:100F5000E827E0932F01E0913D01F0E0E85BFE4FD0
:100F6000E49180913001E827E0933001E0913A016B
:100F7000F0E0E85BFE4FE49180913101E827E093D7
:100F80003101EEE2F1E084819081892784833196FA
:100F900081E0EA33F807B9F70895DC01EEE2F1E009
:100FA0008C91919189278D9381E0EE33F807C1F7F9
:100FB0000E9486070895CF92DF92EF92FF920F93DF
:100FC0001F93CF93DF936C010E94D70883708F5FCC
:100FD00000008150E9F740EBE42E40E0F42E0FE8EA
:100FE00010E0C0E1D0E00E94D708E82FEF70D801F0
:100FF0004C912E2F30E0D7018D919C91BC01269F02
:10100000C001279F900D369F900D1124892F99279D
:10101000DC01AC9FC001AD9F900DBC9F900D1124D1
:10102000E81BF0E0E058FF4F8081D8018C934083AB
:101030002EEF3FEFE20EF31E219701501040C1301A
:10104000D10589F6C0E8D0E08991D601A80FB11D7D
:10105000EC91F0E0E85BFE4FE491EC9330E0C039B6
:10106000D30791F70E94D70883708F5F00008150EB
:10107000E9F7DF91CF911F910F91FF90EF90DF90F3
:10108000CF9008950F931F938C010E94DB07C80136
:101090000E946607C8010E94CD071F910F91089515
:1010A000CF92DF92EF92FF921F93CF93DF93EC01E9
:1010B0007B016A0187B3806A87BB88B3806A88BB7B
:1010C000188121E030E0FE01E20FF31F8081182734
:1010D0002F5F3F4F20313105B1F70E94B6088127BD
:1010E00068E470E00E94CD081092B4011092B30140
:1010F00020E030E0F901E25DFE4FD601A20FB31F00
:101100008C9180832F5F3F4F2031310599F720E08C
:1011100030E0F701E20FF31FDE01A20FB31F8C9145
:1011200080832F5F3F4F2031310599F7C7010E941F
:10113000CD07C0E0D0E0C7010E9442082196C93027
:10114000D105C9F7C7010E94DB07C7010E94E80665
:10115000C7010E94CD0788B38F7588BBDF91CF91FF
:101160001F91FF90EF90DF90CF9008958EED87B99B
:1011700085E886B920E030E090E0369A349BFECFD7
:1011800084B1990F8170982B85B12F5F3F4F283024
:10119000310599F73798892F0895882309F481E05C
:1011A00080933E017093B6016093B50108958091DC
:1011B0003E01E091B501F091B601E80FF11DE49117
:1011C000E0933E018E2F08958EED87B985EE86B9A6
:1011D0000895379808951F920F920FB60F92112419
:1011E0002F933F934F935F938F939F93EF93FF932F
:1011F000DF93CF9300D0CDB7DEB715BC14BC4091C0
:10120000B5015091B60180913E019A01280F311D20
:10121000F9018491282F2F73206423BD480F511D9D
:10122000FA01849180933E0190E08370907003C036
:1012300089819A8101979A83898389819A81892BEF
:10124000B9F781E085BD0F900F90CF91DF91FF91AD
:10125000EF919F918F915F914F913F912F910F90BF
:101260000FBE0F901F90189515BC14BC80913E01C5
:10127000E091B501F091B601E80FF11DE491E09322
:101280003E01EF73E064E3BD89B7806889BF78945D
:1012900081E085BD089515BC0895CF93DF93EC01DF
:1012A000ADEBB0E0FC0180819D918927819380E0C6
:1012B000AD3CB807C1F720E030E08881FB01E80FC2
:1012C000F11DE491E9932F5F3F4F20313105A9F7DC
:0A12D000DF91CF910895F894FFCF4D
:1012DA003BBA110011812A4649545F435655542A94
:1012EA000123456789ABCDEFCAFEBABEDEADBEEFBC
:1012FA00000102030405060708090A0B0C0D0E0F6C
:10130A000000000180005600400034002B00250038
:10131A0020001D001A001800160014001300120005
:10132A00100001020408102040801B366C46616BD5
:0E133A0065206B65792C204C4F4C210A000079
:00000001FF
