:100000000C9424000C9441000C9441000C94410089
:100010000C9441000C9441000C9441000C9441005C
:100020000C9441000C9441000C9441000C9441004C
:100030000C9441000C9441000C9441000C9441003C
:100040000C9441000C94410011241FBECFE5D4E074
:10005000DEBFCDBF11E0A0E6B0E0EEE4F0E102C00B
:1000600005900D92AC3BB107D9F712E0ACEBB1E0D3
:1000700001C01D92AD34B107E1F70E9443000C941A
:1000800025080C9400000F931F9386E092E0909354
:100090000302809302022CED31E03093050220939D
:1000A00004020E948B0180910402909105020E943B
:1000B00094010E94410202E017E6809102029091B1
:1000C00003020E946E02E0910402F0910502813069
:1000D00059F0809106028083809107028183028318
:1000E00015821383148207C080910202909103024B
:1000F000BF010E94990080910402909105020E9424
:10010000B60180910202909103020E948B018091BE
:100110000402909105020E949401CFCFFC018781D7
:10012000861729F48085841711F481E008958FEFF4
:100130000895FC01DB0180818C93818111968C9361
:1001400011978181813C71F480818C9381EE1196AD
:100150008C93119781E012968C9312978381169657
:100160008C9308958381803809F045C0848180355F
:1001700001F1813528F4803441F08234C1F50FC09B
:10018000823509F1803699F528C087818031B9F52B
:1001900080858031A1F5CF010E94D7030895878122
:1001A000803169F58085803151F5CF010E94B0031F
:1001B00008958781803119F58085803101F5CF015F
:1001C0000E948903089587818031C9F48085803138
:1001D000B1F4CF010E94620308958781803179F4E0
:1001E0008085803161F4CF010E943B030895CD01E9
:1001F0000E94A6010895CB010E949E010895CD01A1
:100200000E94AE01089565E16A95F1F7089569E7E6
:10021000FBCF7F936F935F934F9361E060934C02AA
:10022000BE98C698B699FECFB699FCCF8827992775
:100230006FE1EADF22D0000059E0442762E40000C9
:100240000000E2DF1AD0470F889470FD089487956C
:1002500061E45A95B1F7881F40FD08C06CE4D4DF13
:1002600099274F915F916F917F9108956CE4CCDF56
:10027000BE9AC69866EBC8DFD3CF77278894B69925
:100280000894791FC0DF8894B6990894791FBBDF62
:100290008894B6990894791F769508956F937F9303
:1002A00060914C02662329F0B2DFB1DF60E0609319
:1002B0004C02C69ABE9AC69867E7A6DF98E07727F1
:1002C000879510F0C69802C0C69A739566E79CDFC2
:1002D00000009A95A9F770FD04C000000000C698C0
:1002E00004C00000C69A0000000060E78DDFC69AD7
:1002F00067E78ADFBE98C6988894B699089430F06C
:100300008795B699FECF6AE37FDFD3CF64E77CDFC2
:100310007F916F910895FC011082118212821086E4
:100320001782138214820895FC011082118282E0E8
:100330008283158284E6838314820895FC0182E01F
:10034000828315828EE6838314820895FC0182E005
:100350008283158288E6838314820895FC0182E0FB
:10036000828315828AE6838314820895CF92DF9276
:10037000FF920F931F93DF93CF93CDB7DEB7C65491
:10038000D0400FB6F894DEBF0FBECDBF8C01DC01AC
:1003900011962C9111973C9112964C91129727FF30
:1003A0001BC039832A834B8316968C918C83132F21
:1003B0001227142718271D83832F0E944E018A813C
:1003C0000E944E018B810E944E018C810E944E0141
:1003D000812F0E944E0146C039832A834B83632FAD
:1003E00062276427FC018581A80194E0C92ED12CE5
:1003F000CC0EDD1EA82FB0E09E012A0F3B1F2C5F04
:100400003F4F06C0FA018581F60181936F0168278D
:100410004F5F5F4FC216D306A9F7F8019381FE0123
:10042000EA0FFB1F9483F8018481FE01EA0FFB1F92
:100430008583892786278683FF246E010894C11C43
:10044000D11C06C0EC0DFD1D80810E944E01F3946D
:10045000EF2DF0E0D80112968C9190E003968E1764
:100460009F0784F7CA5BDF4F0FB6F894DEBF0FBE5D
:10047000CDBFCF91DF911F910F91FF90DF90CF9073
:1004800008951F93CF93DF931BE3C6E9D0E0FE01ED
:100490008191182780E0E03AF807D1F78BE30E94BA
:1004A0004E018AEB0E944E0181E10E944E0180E0E4
:1004B0000E944E0181E10E944E0181E80E944E019E
:1004C00089910E944E0180E0C03AD807C9F7812F78
:1004D0000E944E01DF91CF911F9108957F928F92DC
:1004E0009F92AF92BF92CF92DF92EF92FF920F93C3
:1004F0001F93DF93CF93CDB7DEB7C654D0400FB66E
:10050000F894DEBF0FBECDBF8C010E940901782E8A
:100510000E940901882E0E940901982E7E010894EC
:10052000E11CF11C67015701A80EB11C05C00E9417
:100530000901D6018D936D01CA14DB04C1F70E9435
:100540000901682FF801708281829282982D972587
:10055000992504C0D7018D917D019827EC14FD04E5
:10056000C9F78981F80183838A8184838B8185839C
:100570008C8186838281853019F48D8180872EC09D
:10058000863060F18D81D80117968C9326E0E22E9B
:10059000F12CEC0EFD1EF80140E050E006C0D70142
:1005A0008D917D0180874F5F5F4FD80117968C91A9
:1005B0001797282F30E031964217530784F312968D
:1005C0008C911297E82FF0E02B5F3F4F2E173F07DB
:1005D0002CF4EC0FFD1F808118968C93961711F464
:1005E00081E001C08FEFCA5BDF4F0FB6F894DEBF2A
:1005F0000FBECDBFCF91DF911F910F91FF90EF9074
:10060000DF90CF90BF90AF909F908F907F90089594
:10061000CF93DF93EC0190E00BC0E92FF0E0DE0117
:10062000AE0FBF1F19968C91E454FE4F80839F5FDD
:100630008885981790F3DF91CF910895CF93DF933A
:10064000EC016E5F6A8362506D8380E98B831C824C
:1006500090E00BC0E92FF0E0DE01AE0FBF1FE453C6
:10066000FE4F808116968C939F5F8D81981790F333
:10067000DF91CF9108950F931F93CF93DF93EC01F8
:100680008B0190E00BC0E92FF0E0DE01AE0FBF1F41
:1006900019968C91E454FE4F80839F5F888598174C
:1006A00090F38CEB91E06CEC71E040EA50E00E943A
:1006B0009507C80160E10E941E03DF91CF911F9151
:1006C0000F9108950F931F93CF93DF93EC018B014C
:1006D00090E00BC0E92FF0E0DE01AE0FBF1F1996CE
:1006E0008C91E454FE4F80839F5F8885981790F328
:1006F0008CEB91E06CEC71E040EA50E00E948604E3
:10070000C80160E10E941E03DF91CF911F910F91FC
:1007100008950F931F93CF93DF93EC018B0190E02B
:100720000BC0E92FF0E0DE01AE0FBF1F19968C91D0
:10073000E454FE4F80839F5F8885981790F38CEB7D
:1007400091E06CEC71E040EA50E00E944504C80181
:1007500060E10E941E03DF91CF911F910F910895D8
:100760000F931F93CF93DF93EC018B0190E00BC0AD
:10077000E92FF0E0DE01AE0FBF1F19968C91E45413
:10078000FE4F80839F5F8885981790F38CEB91E0F4
:100790006CEC71E040EA50E00E942404C80160E182
:1007A0000E941E03DF91CF911F910F9108950F9327
:1007B0001F93CF93DF93EC018B0190E00BC0E92FE7
:1007C000F0E0DE01AE0FBF1F19968C91E454FE4F8E
:1007D00080839F5F8885981790F38CEB91E06CEC99
:1007E00071E040EA50E00E94FE03C80160E10E940F
:1007F0001E03DF91CF911F910F9108950F931F93C7
:10080000CF93DF938C0187B3806A87BB88B3806AFC
:1008100088BBEB0120E030E0FA01E20FF31FD801C2
:10082000A20FB31F80819C9189278F872F5F3F4F35
:1008300021972031310581F788B38F7588BBDF910F
:10084000CF911F910F910895CF93DF9327B3206A23
:1008500027BB28B3206A28BBEC0120E030E0DB0195
:10086000A20FB31FFA01E20FF31F80819F85892732
:100870008C932F5F3F4F21972031310581F788B34B
:100880008F7588BBDF91CF9108952F923F924F9241
:100890005F926F927F928F929F92AF92BF92CF9210
:1008A000DF92EF92FF920F931F93CF93DF93EF931B
:1008B000FF93B92FA82FD72FC62FF52FE42FBD9A5E
:1008C000BF9AC59AC79A00E11127C00FD11F20E136
:1008D0000D91119101270A932A95D1F7C598C798D0
:1008E000FF91EF91DF91CF911F910F91FF90EF90CA
:1008F000DF90CF90BF90AF909F908F907F906F9040
:100900005F904F903F902F90112408952F923F9227
:100910004F925F926F927F928F929F92AF92BF920F
:10092000CF92DF92EF92FF920F931F93CF93DF93BB
:10093000EF93FF93A82FB92FC62FD72FE42FF52FB2
:10094000BD9ABF9AC59AC79A00E11127A00FB11F9F
:1009500020E10E911191012709932A95D1F7C598AD
:10096000C798FF91EF91DF91CF911F910F91FF9069
:10097000EF90DF90CF90BF90AF909F908F907F903F
:100980006F905F904F903F902F9011240895DC015D
:1009900020E030E0EC91F0E0E055FF4F80818D9356
:1009A0002F5F3F4F20313105A9F70895FC01918158
:1009B00085818183818585838585818795879281DE
:1009C000268182858283868586839287268797857E
:1009D000838587878781838783818783938308952E
:1009E000982F880F880B8B71990F89270895CF93C3
:1009F000DF93DC01C0E0D0E02C9111969C9111971F
:100A00001296EC91129713963C911397722F770FD1
:100A1000770B7B71822F880F7827492F440F440B67
:100A20004B71892F880F48275E2F550F550B5B712F
:100A30008E2F880F5827632F660F660B6B71832FDD
:100A4000880F6827892F82279E2793279727942727
:100A50009C932E2723272427252711962C93119723
:100A600038273527362712963C9312978E278727EB
:100A7000862713968C93139721961496C430D1052C
:100A800009F0BACFDF91CF910895BF92CF92DF9254
:100A9000EF92FF920F931F93DC0111968C911197A7
:100AA00040EB50E0FA01E80FF11DB08012968C91F6
:100AB0001297FA01E80FF11DC08013968C911397DD
:100AC000FA01E80FF11DD08016968C911697FA0165
:100AD000E80FF11DE08017968C911797FA01E80F47
:100AE000F11D10811B968C911B97FA01E80FF11DE7
:100AF000F0808C91FA01E80FF11D008115968C9120
:100B00001597FA01E80FF11D20811A968C911A971A
:100B1000FA01E80FF11D90811F968C911F97FA0141
:100B2000E80FF11DE081F02FFF0FFF0BFB71802F0D
:100B3000880FF827622F660F660B6B71822F880F64
:100B40006827392F3227832F8E278F2786278C936C
:100B5000792F770F770B7B71892F880F78279E2746
:100B600090279627972711969C9311979E2F990F60
:100B7000990B9B718E2F880F98272E2720272727C8
:100B8000292712962C93129730273F27392713963F
:100B90003C93139714968C911497FA01E80FF11D6A
:100BA000008119968C911997FA01E80FF11D2081A7
:100BB0001E968C911E97FA01E80FF11DE081702FAF
:100BC000770F770B7B71802F880F7827622F660F46
:100BD000660B6B71822F880F6827822F8D258E27D9
:100BE0008727862714968C9314973E2F330F330B49
:100BF0003B718E2F880F3827902F9D25892F8E27A8
:100C00008627832715968C9315978D2D880F880B33
:100C10008B71DD0C8D2592279327982716969C9330
:100C2000169720272E272727282717962C931797C4
:100C300018968C911897FA01E80FF11D20811D96E6
:100C40008C911D97FA01E80FF11DE081722F770F4B
:100C5000770B7B71822F880F78273E2F330F330B52
:100C60003B718E2F880F3827912F9C25892F8E2737
:100C70008727832718968C9318976C2D660F660B21
:100C80006B718C2D880F68279227932796271996CA
:100C90009C931997912F990F990B9B71812F880F16
:100CA000982712271E27162719271A961C931A977A
:100CB0002C252E27272729271B962C931B971C961C
:100CC0008C911C97480F511DFA015081452F440FFC
:100CD000440B4B71852F880F48279B2D990F990B3B
:100CE0009B718B2D880F98272E2D2B25822F8F25DA
:100CF000842789271C968C931C973E2D330F330B2A
:100D00003B718E2D880F3827EF24E526E926E32650
:100D10001D96EC921D979F2D990F990B9B718F2D0E
:100D2000880F9827FB24F526F326F9261E96FC92B9
:100D30001E972527242729271F962C931F910F9153
:100D4000FF90EF90DF90CF90BF900895EF92FF92C9
:100D50000F931F93FC01218180EB90E0DC01A20F37
:100D6000B11DEC902281DC01A20FB11D0C912381F9
:100D7000DC01A20FB11D6C912681DC01A20FB11D17
:100D8000FC902781DC01A20FB11D7C912385DC0141
:100D9000A20FB11D1C912581DC01A20FB11D5C9138
:100DA0002285DC01A20FB11D4C912785DC01A20F29
:100DB000B11D3C912081DC01A20FB11D2C9120833B
:100DC0005183428333832185DC01A20FB11D4C91F5
:100DD0002685DC01A20FB11D3C912481DC01A20F0C
:100DE000B11D2C9124834583368367832585DC01DF
:100DF000A20FB11D3C912085DC01A20FB11D2C91E9
:100E000020873187028773872485820F911DDC013B
:100E10008C918487E586F68617871F910F91FF9046
:100E2000EF900895EF92FF920F931F93CF93DF936C
:100E3000EC0120E030E0FE01E20FF31FDB01A20F26
:100E4000B31F8C9180832F5F3F4F2031310599F77D
:100E50004C857D856E855F85DE01C1E0D0E0C901EE
:100E60008F70907011961C91119712960C91129799
:100E70001396EC901397FC90892BF9F4E72FF0E090
:100E8000E055FF4F8081E62FF0E0E055FF4F708185
:100E90007127E52FF0E0E055FF4F60816027E42FD8
:100EA000F0E0E055FF4F50815E25FE01E055FE4F1A
:100EB00040814F254827219604C04F257127602780
:100EC0005E2550964C93509751967C93519752962D
:100ED0006C93529753965C9353972C5F3F4F1496A5
:100EE000203B310509F0BBCFDF91CF911F910F91CE
:100EF000FF90EF900895CF93DF93EA01DC0140E08B
:100F000050E088819981FB01E80FF91F2C91308115
:100F100023272D930196998388834F5F5F4F40313C
:100F2000510579F7DF91CF9108958F929F92AF92FB
:100F3000BF92CF92DF92EF92FF920F931F93DF93B6
:100F4000CF93CDB7DEB7C25BD0400FB6F894DEBF0B
:100F50000FBECDBF8C016B011A82198220E030E0F8
:100F6000F601E20FF31FD801A20FB31F8C9180830B
:100F70002F5F3F4F2031310599F783E0E82EF12CA8
:100F8000EC0EFD1EC701BA010E941207C601B7018F
:100F90008E010F5F1F4FA8010E947B07AA24BB246C
:100FA000470178011DC0EC91F0E0E055FF4F8081D2
:100FB0008D932F5F3F4F20313105A9F7C6010E9465
:100FC000D604C6010E94F704C601B401A7010E941D
:100FD0007B070894A11CB11C89E0A816B10429F074
:100FE0008601D60120E030E0DECF20E030E0D801FD
:100FF000EC91F0E0E055FF4F8081F80181938F0183
:101000002F5F3F4F2031310591F7C6010E94D60472
:10101000C601BE016D5F7F4FAE014F5F5F4F0E9403
:101020007B07CE54DF4F0FB6F894DEBF0FBECDBFA7
:10103000CF91DF911F910F91FF90EF90DF90CF90B4
:0E104000BF90AF909F908F900895F894FFCFCF
:10104E00303132333435363730313233343536375A
:10105E00303132333435363730313233343536374A
:10106E00303132333435363730313233343536373A
:10107E003BBA110011812A4649545F435655542AF2
:10108E0000010203040506070809AABBCCDDEEFF2A
:10109E00637C777BF26B6FC53001672BFED7AB7627
:1010AE00CA82C97DFA5947F0ADD4A2AF9CA472C0D2
:1010BE00B7FD9326363FF7CC34A5E5F171D831153F
:1010CE0004C723C31896059A071280E2EB27B27560
:1010DE0009832C1A1B6E5AA0523BD6B329E32F84D8
:1010EE0053D100ED20FCB15B6ACBBE394A4C58CFD0
:1010FE00D0EFAAFB434D338545F9027F503C9FA8A4
:10110E0051A3408F929D38F5BCB6DA2110FFF3D271
:10111E00CD0C13EC5F974417C4A77E3D645D197325
:10112E0060814FDC222A908846EEB814DE5E0BDB1F
:10113E00E0323A0A4906245CC2D3AC629195E47956
:10114E00E7C8376D8DD54EA96C56F4EA657AAE08B0
:10115E00BA78252E1CA6B4C6E8DD741F4BBD8B8A4B
:10116E00703EB5664803F60E613557B986C11D9EB1
:10117E00E1F8981169D98E949B1E87E9CE5528DF28
:10118E008CA1890DBFE6426841992D0FB054BB1654
:0C119E008D01020408102040801B360068
:00000001FF
